{
  "contractName": "Election",
  "abi": [
    {
      "constant": true,
      "inputs": [],
      "name": "candidatesCount",
      "outputs": [
        {
          "name": "",
          "type": "uint256"
        }
      ],
      "payable": false,
      "stateMutability": "view",
      "type": "function"
    },
    {
      "inputs": [
        {
          "name": "",
          "type": "uint256"
        }
      ],
      "payable": false,
      "stateMutability": "view",
      "type": "function",
      "constant": true,
      "name": "candidates",
      "outputs": [
        {
          "name": "id",
          "type": "uint256"
        },
        {
          "name": "name",
          "type": "string"
        },
        {
          "name": "voteCount",
          "type": "uint256"
        }
      ]
    },
    {
      "constant": false,
      "inputs": [],
      "name": "ElectionCandidates",
      "outputs": [],
      "payable": false,
      "stateMutability": "nonpayable",
      "type": "function"
    }
  ],
  "bytecode": "0x608060405234801561001057600080fd5b506103f3806100206000396000f3fe608060405260043610610057576000357c0100000000000000000000000000000000000000000000000000000000900463ffffffff1680632d35a8a21461005c5780633477ee2e14610087578063d0b6a00914610149575b600080fd5b34801561006857600080fd5b50610071610160565b6040518082815260200191505060405180910390f35b34801561009357600080fd5b506100c0600480360360208110156100aa57600080fd5b8101908080359060200190929190505050610166565b6040518084815260200180602001838152602001828103825284818151815260200191508051906020019080838360005b8381101561010c5780820151818401526020810190506100f1565b50505050905090810190601f1680156101395780820380516001836020036101000a031916815260200191505b5094505050505060405180910390f35b34801561015557600080fd5b5061015e610228565b005b60015481565b6000602052806000526040600020600091509050806000015490806001018054600181600116156101000203166002900480601f0160208091040260200160405190810160405280929190818152602001828054600181600116156101000203166002900480156102185780601f106101ed57610100808354040283529160200191610218565b820191906000526020600020905b8154815290600101906020018083116101fb57829003601f168201915b5050505050908060020154905083565b6102666040805190810160405280600b81526020017f43616e64696461746520310000000000000000000000000000000000000000008152506102a6565b6102a46040805190810160405280600b81526020017f43616e64696461746520320000000000000000000000000000000000000000008152506102a6565b565b600160008154809291906001019190505550606060405190810160405280600154815260200182815260200160008152506000806001548152602001908152602001600020600082015181600001556020820151816001019080519060200190610311929190610322565b506040820151816002015590505050565b828054600181600116156101000203166002900490600052602060002090601f016020900481019282601f1061036357805160ff1916838001178555610391565b82800160010185558215610391579182015b82811115610390578251825591602001919060010190610375565b5b50905061039e91906103a2565b5090565b6103c491905b808211156103c05760008160009055506001016103a8565b5090565b9056fea165627a7a723058202bd20378e3c074ca672e0fdbd1cde2d99167641ca00876af7ef79b6d746a82c20029",
  "source": "pragma solidity >=0.4.25 <0.6.0;\n\ncontract Election {\n\t// Model a candidate\n\tstruct Candidate {\n\t\tuint id;\n\t\tstring name;\n\t\tuint voteCount;\n\t}\n\t// Store candidate\n\t// Fetch candidate\n\tmapping(uint => Candidate) public candidates;\n\t// Store candidates count\n\tuint public candidatesCount;\n\n\tfunction ElectionCandidates () public {\n\t\taddCandidate(\"Candidate 1\");\n\t\taddCandidate(\"Candidate 2\");\n\t}\n\n\tfunction addCandidate (string memory _name) private {\n\t\tcandidatesCount ++;\n\t\tcandidates[candidatesCount] = Candidate(candidatesCount, _name, 0);\n\t}\n}\n",
  "sourcePath": "/Users/anders/code/Anderche/election/contracts/Election.sol",
  "compiler": {
    "name": "solc",
    "version": "0.5.0+commit.1d4f565a.Emscripten.clang"
  },
  "schemaVersion": "3.0.9",
  "updatedAt": "2019-05-31T19:08:35.774Z",
  "devdoc": {
    "methods": {}
  },
  "userdoc": {
    "methods": {}
  }
}